:020000040800F2
:10000000C8040020D90000081F0C00081D0C0008BF
:1000100000000000000000000000000000000000E0
:10002000000000000000000000000000230C000899
:100030000000000000000000210C0008250C000852
:10004000EB000008EB000008EB000008EB000008E4
:10005000EB000008EB000008EB000008EB000008D4
:10006000EB000008EB000008EB000008EB000008C4
:10007000EB000008EB000008EB000008EB000008B4
:10008000EB000008EB000008EB0000087D0C000806
:10009000EB000008EB000008EB000008EB00000894
:1000A000EB000008EB000008EB000008EB00000884
:1000B000EB000008E90C0008EB000008EB0000086A
:1000C0000448854600F0C8F9004800471D110008A3
:1000D000C046C046C8040020044880470448004782
:1000E000FEE7FEE7FEE7FEE7FEE7FEE77B0C000823
:1000F000C100000830B50B46014600202022012433
:1001000009E00D46D5409D4205D31D469540491B4B
:100110002546954040191546521E002DF1DC30BD94
:10012000F0B51FB40646002082B005464024019178
:1001300000901BE0019922460F46304600F020F85F
:10014000049A059B801A994110D3104619462246FD
:1001500000F058F8361A8F410197224601200021FD
:10016000009F00F04FF838184D4100902046641E63
:100170000028DFDC019B00982946324607B0F0BD1D
:1001800010B5202A04DB0846203AD040002110BDDB
:100190000B46D340D0402024A21A91400843194670
:1001A00010BDD2B201E00270401C491EFBD2704764
:1001B0000022F6E710B513460A4604461946FFF733
:1001C000F0FF204610BD00004A0009030123090B7F
:1001D0001B051943094B10B5520D9A4201DA002054
:1001E00010BD064B34339A4203DC9A1AFFF7C8FF5E
:1001F00010BD03495118884010BD0000FF030000E6
:10020000CDFBFFFF10B5202A04DB0146203A9140C8
:10021000002010BD914020239C1A0346E34019435F
:10022000904010BDF0B507460846584087B0C00F53
:10023000049048000E46590040084908BC1A8841FD
:1002400005D2384631461E4617460B460246580030
:10025000400810434DD0300D039040055900400D2B
:10026000490D0590401A0290402873DA18030121C5
:10027000000B09050843019004980092002806D05D
:100280001146019A49420020904100910190029844
:1002900040210A1A01990098FFF7B4FF05460C4661
:1002A0006B4607CB00F0EAF8C0197141039A0E0DB6
:1002B0000023D71756401A467A40164344D0049A72
:1002C000002A2DD0029A012A039A15DC1205C01AC1
:1002D000914101263605001C7141D20F059ED207BF
:1002E0000093019202962A46234600F0E7F807B0F1
:1002F000F0BD38463146FAE71605234A0F46B218D4
:10030000C01AB74101210905001C4F4100187F4167
:10031000114618187941E20F10436D19644113E03A
:10032000E2076D0815436408C2071443039A0126C7
:100330001205C01A91413605001C7141CE074008D4
:1003400030434908C01851412A46234600F0A9F815
:10035000CDE7FFE7049801224000C117121A0023DD
:100360008B4104983146C417381AA141EEE730B4E6
:100370000124E407634030BC54E730B40124E407AF
:10038000614030BC4EE700000000E0FFF8B50546D4
:10039000480040080C46284304D06000184A400D2D
:1003A000904201DD2846F8BD15493539884210DCF8
:1003B00088420BDB290D200308432903014305D0A4
:1003C000E00F1049C00741180020F8BD0020014689
:1003D000F8BD161A4020821B28462146FFF712FF5F
:1003E00007460091284621463246FFF7C9FE3A46A5
:1003F000009B00F056F83246FFF704FFF8BD0000FE
:10040000330400000000F03F10B5002904DB012494
:10041000E40740428C412146002B04DB1C460123AB
:10042000DB075242A3418B4200D1824210BD000043
:1004300010B5002904DB0124E40740428C41214629
:10044000002B04DB1C460123DB075242A3419942E7
:1004500000D1904210BD0000064C0125064E05E07B
:10046000E36807CC2B430C3C98471034B442F7D3D5
:10047000FFF72AFEE41200080413000810B5202A32
:1004800006DBCB170846203A1041C1170B4306E0A4
:100490000B461341D0402024A21A9140084319462C
:1004A00010BD10B5002B08DA0024401C61419218E1
:1004B0005B411A4301D14008400010BDF0B51FB4A4
:1004C00082B005460C0003D0084600F003FD02E0B0
:1004D00000F000FD20300246009021462846FFF73C
:1004E00091FE049B059A04460F46184311430843A6
:1004F00014D0184610431BD0009840210A1A184601
:100500000599FFF73DFE05460E46009A05990498A9
:10051000FFF778FE084305D0012004E02046394665
:1005200007B0F0BD0020C11705430E432C433743ED
:1005300000990E986305401A7905E40A00220C43DD
:10054000FD0A0A3002D500200146E9E7010510192D
:1005500069410C9C0D9D00196941FFF7A2FFDFE77F
:1005600070B5044600F00EF80546601C02D0044841
:100570000078241800F006F8401BA042FAD370BDA2
:100580002000002001488068704700002000002003
:100590000248816802788918816070472000002035
:1005A00010B506480168102211430160002000F0D8
:1005B00007F800F027F8002010BD000000200240DE
:1005C00070B504460D4D7D202978C000FFF792FDDF
:1005D00001460B480068FFF78DFD00F007FB00287F
:1005E00009D1042C07D200222146401E00F01EF83B
:1005F00000206C6070BD012070BD00002000002054
:100600002C00002008B5084881690122114381614E
:10061000816911400091C26901040A43C261C06945
:100620000840009008BD00000010024010B500F026
:10063000AFFC10BDF8B50F4606005FD03D4D2868F1
:10064000C007C00FB84209D22868400840003843AC
:1006500028602868C007C00FB8424FD13068364CB8
:1006600081070CD5400704D56068072109020843BB
:1006700060606068F0218843B1680843606030784A
:10068000C0072CD07068012810D0022811D0032890
:1006900012D021688907002930DA61688908890049
:1006A00001436160FFF76EFF009011E0216889034C
:1006B000F1E721688901EEE7616BC903EBE7FFF71A
:1006C00061FF0099411A1D48814201D90320F8BDFC
:1006D00060680C210840716889008842EFD1286861
:1006E000C007C00FB8420BD9286840084000384303
:1006F00028602868C007C00FB84201D00120F8BDAB
:100700003078400706D56068072109028843F16800
:100710000843606000F01EF86168094A0906090F85
:10072000515CC840074908600020FFF749FF0020DE
:10073000F8BD0000002002400010024088130000B5
:10074000D41200082C000020014800687047000007
:100750002C00002030B519A30FCB89B06C460FC414
:100760001AA30FCB0FC41D4A51680C200B4603403F
:100770001B48042B05D01B4D082B04D00C2B00D19B
:10078000284609B030BD8B021B0F6C46E45CD26A70
:1007900004AB1207120FC9039A5C890F022901D01A
:1007A000032901D0002301E0002328460021FFF7A0
:1007B000B7FC214600F0A5FBE3E7000002030405B7
:1007C000060708090A0B0C0D0E0F10100102030496
:1007D00005060708090A0B0C0D0E0F100010024049
:1007E00000127A00006CDC02FEB5040070D02078A4
:1007F000F94EFA4DC00748D068680007800F0128FD
:100800001FD068680007800F022804D16868C00301
:10081000800F022815D06168012919D001208004B9
:10082000002901D0052917D02968B143296029681A
:1008300081432960606800281BD0FFF7A3FE0746AC
:1008400013E02868800320D560680028CED01CE023
:10085000286830432860EDE7296801432960F7E7FD
:10086000FFF790FEC01B642870D828688003F7D576
:100870000BE0FFF787FE074604E0FFF783FEC01B8F
:100880006428F1D828688003F7D4207880073FD502
:1008900068680007800F14D068680007800F02287E
:1008A00004D16868C003800F01280AD0E0680028DE
:1008B00028681ED0012108432860FFF763FE074621
:1008C0000CE0286880070CD5E068012800D108E01A
:1008D00080E1FFF757FEC01B0228C5D828688007B3
:1008E000F7D52868F82188432169C90008432860A2
:1008F0000EE0400840002860FFF744FE074604E091
:10090000FFF740FEC01B0228AED828688007F7D446
:100910002078000723D5E0690028686A0FD00121FC
:1009200008436862FFF72EFE074604E0FFF72AFE41
:10093000C01B022898D8686A8007F7D50FE04008E6
:1009400040006862FFF71EFE074605E0C3E0FFF7C0
:1009500019FEC01B022887D8686A8007F7D4207860
:1009600004274007002861DA00200190E869C000F0
:1009700008D4E969B8060143E961E9690140012049
:100980000091019096480168C90511D4016882154B
:1009900011430160FFF7F6FD009005E0FFF7F2FD5F
:1009A0000099401A642898D88D480068C005F5D58C
:1009B000A06801280AD0002801D0052811D0286A93
:1009C000400840002862286AB84302E0286A0121F2
:1009D00008432862A068002812D0FFF7D3FD0090DA
:1009E0000AE0286A38432862F0E7FFF7CBFD009958
:1009F000411A7C4881426ED8286A8007F5D50DE0FF
:100A0000FFF7C0FD009006E0FFF7BCFD0099411A1A
:100A1000744881425FD8286A8007F5D4019800287D
:100A200004D0E969012000078143E9612078C0060C
:100A300035D5606901280CD0401D686B24D038433F
:100A40006863686B400840006863FFF79BFD0746DA
:100A500022E0686B38436863686B01210843686370
:100A6000FFF790FD074604E0FFF78CFDC01B02284E
:100A700031D8686B8007F7D5686BF8218843A16986
:100A8000C900084368630AE0B8436863F4E7FFF706
:100A900079FDC01B02281ED8686B8007F7D4207828
:100AA000800637D568680007800F032814D068686F
:100AB0000007800F022804D16868C003800F032854
:100AC0000AD0206A0028686B16D030436863FFF7AD
:100AD00059FD06460CE062E0686BC0031AD5206A37
:100AE000012877D116E0FFF74DFD801B022856D86C
:100AF000686BC003F7D50DE0B0436863FFF742FDB4
:100B0000064604E0FFF73EFD801B022847D8686BCD
:100B1000C003F7D4606A002866D069680907890FA6
:100B2000022942D0012636060228286805D0B043A3
:100B30002860FFF727FD044633E0B0432860FFF745
:100B400021FD074604E0FFF71DFDC01B022826D843
:100B500028688001F7D4E86A216B00090001084386
:100B6000E862A16AE06A084369687B22D203914384
:100B700008436860286830432860FFF703FD044697
:100B800004E0FFF7FFFC001B022808D8286880015A
:100B9000F7D529E0FFF7F6FC001B022801D9032056
:100BA000FEBD28688001F5D41EE00128F8D06868F1
:100BB000E96A0322D203A36A02409A420AD10907D2
:100BC000226B090F914205D10F2189040840E16A87
:100BD000884209D00120FEBD000001000010024043
:100BE00000700040881300000020F4E7094910B5A8
:100BF000401E884201D9012010BD074C60610321CD
:100C0000081F00F0C5F90020A06107202061002026
:100C100010BD0000FFFFFF0000E000E0FEE7FEE780
:100C20007047704710B5FFF7B3FC10BD10B592B018
:100C300034216846FFF7BCFA00240F94202000906E
:100C40000D9401200E940890109409946846FFF7C3
:100C5000CBFD002801D072B6FEE707200D900320DF
:100C60000E900F94012110940DA8FFF7E3FC0028CB
:100C700001D072B6FEE712B010BD704730B516480D
:100C8000016949084900016114494A6980246240A8
:100C90004A6113498A88962A15D2124B9D5C0B78BB
:100CA0001D4203D04D8945638D8902E0CD8845639F
:100CB0000D89C562012B02D05808087030BD0C7038
:100CC000521C8A8030BD00224263C989C162C1685A
:100CD00049084900C16030BD0020004000080048BC
:100CE0000000002030000020F8B56B48C069800685
:100CF00071D56948203081886848817080780025E6
:100D0000FF26674C722810D064488178622929D068
:100D10008178702942D0817867295DD081787929DE
:100D200078D08078632874D0AFE05EA000F078F9C6
:100D30000020922795219022121AA35C9322121A66
:100D4000A3549122121AA35C9422121AA3543A1AA1
:100D50000B1AC01CA25CC0B2E2549328EBD32670DD
:100D6000657073E051A000F05BF900209227952197
:100D70009022121AA35C9322121AA3549122121ADF
:100D8000A35C9422121AA3543A1A0B1AC01CA25C38
:100D9000C0B2E2549328EBD325701AE045A000F0CE
:100DA0003FF90020922795219022121AA35C9322EA
:100DB000121AA3549122121AA35C9422121AA35459
:100DC0003A1A0B1AC01CA25CC0B2E2549328EBD3AF
:100DD0002670657058E05EE038A000F021F9002030
:100DE000922795219022121AA35C9322121AA354DF
:100DF0009122121AA35C9422121AA3543A1A0B1AC3
:100E0000C01CA25CC0B2E2549328EBD325701CE056
:100E100000E01DE02BA000F003F9002092279521AF
:100E20009022121AA35C9322121AA3549122121A2E
:100E3000A35C9422121AA3543A1A0B1AC01CA25C87
:100E4000C0B2E2549328EBD326706670A5701CE004
:100E50001EA000F0E5F80020922795219022121A9A
:100E6000A35C9322121AA3549122121AA35C942217
:100E7000121AA3543A1A0B1AC01CA25CC0B2E25454
:100E80009328EBD325706670A67004480121016198
:100E90003220FFF765FBF8BD00480040000000204D
:100EA000300000205265642000000000426C75652F
:100EB00020000000507572706C65200047726565F7
:100EC0006E20000059656C6C6F7720004379616E6D
:100ED000200000002021020C01D010211046020A3F
:100EE00001D010460839020901D01046091F8208B6
:100EF00001D01046891E420801D0881E7047081A8A
:100F00007047F8B5040C8BB2264682B25E430D0CD6
:100F10001046370C58433604801900217941164693
:100F20006E43370C36048019794126466E43891981
:100F3000F8BD0000002805DBC106C90E012088406D
:100F4000014908607047000000E100E08307FF22CC
:100F5000DB0E9A408907090E9940002808DB8308B8
:100F600009489B001B181868904308431860704795
:100F70000007000F0838830804489B001B18D86935
:100F800090430843D861704700E400E000ED00E0C2
:100F90008307FF22DB0E9A408907090E994000283B
:100FA00008DB830809489B001B1818689043084316
:100FB000186070470007000F0838830804489B003A
:100FC0001B18D86990430843D861704700E400E0DB
:100FD00000ED00E002E008C8121F08C1002AFAD1A3
:100FE00070477047002001E001C1121F002AFBD1A9
:100FF0007047000010B508494B69032212025340A4
:101000004B61064BDC692406FCD5044B2033188168
:1010100048695040486110BD000800480048004041
:1010200030B50546002402E0FFF7E4FF641C285DAC
:101030000028F9D130BD000070B5314A2F49D16187
:101040002D48304D906128462F4900F0E1F8FFF718
:10105000BBF82B49C88000202C4900F0D9F8FFF7D5
:10106000B3F82749044608812846294900F0D0F8FA
:10107000FFF7AAF822494B2248818C815201084689
:10108000C2810920C006016801235B021943016087
:101090000368FF2101318B430360036A0F2424049A
:1010A000A3430362036A8C02234303621948C369A2
:1010B0000B43C361184800210160816101628369AB
:1010C000682423438361046A01231C430462816210
:1010D000C2624163016819430160016880221143C3
:1010E0000160C1689943C1601320FFF723FF03210A
:1010F0001320FFF72BFF70BD555555555555953F9E
:10110000000000209A9999999999354000005B4018
:10111000999955400010024000200040FFF740FA26
:10112000FFF784FD324948690722520410434861A1
:101130003048426A11239B021A434262426ABB232F
:101140001B029A434262026805235B051A43026050
:1011500002685B109A430260C8690122920410433E
:10116000C861FFF7F1FAE1214902FEF7C3FF224C03
:10117000E06020682C21084320601D20FFF7DAFE84
:1011800003211D20FFF7E2FE2068012108432060B3
:101190001AA0FFF745FF1B480268052109030A430F
:1011A00002604368C0229343436083688B4383603B
:1011B000C1680F231B039943C16041691143416119
:1011C0000020114AFF211154131809301971C0B2BF
:1011D00019729628F7D3FFF72FFF00F067F80B4B33
:1011E000002418690128FCD11C6100F05FF8F8E7C1
:1011F0000010024000040048004800404C45443FB5
:10120000000000000008004830000020000000201E
:10121000F0B513B406460199FFF7B8F804460D4639
:1012200002460B4630460199FFF7A1F806460198A1
:101230001B4B0F4600280CDA00223046FFF7E4F87B
:101240000CD90022174B30463946FFF7F1F81DD272
:1012500014E000223046FFF7D7F808D20022124BE4
:1012600020462946FFF783F804460D460EE000228B
:101270000C4B30463946FFF7DBF807D800220A4B03
:1012800020462946FEF7CEFF04460D46019A690026
:101290004908D20FD2072046114303B0F0BD000029
:1012A0000000E0BF0000E03F0000F03F07480021E1
:1012B0008180417080210170054801694908490019
:1012C0000161C16801221143C16070470000002024
:1012D00000200040000000000000000001020304A4
:1012E0000607080904130008000000203000000071
:1012F000D40F0008341300083000002098040000C8
:10130000E40F000880000000000000000000000062
:1013100000000000000000000000000000000000CD
:1013200000000000010000000400000000000000B8
:0413300000127A002D
:04000005080000C12E
:00000001FF
